{
  "_format": "hh-sol-artifact-1",
  "contractName": "SnakeEggNFT",
  "sourceName": "contracts/Snek.sol",
  "abi": [
    {
      "inputs": [],
      "stateMutability": "nonpayable",
      "type": "constructor"
    },
    {
      "inputs": [
        {
          "internalType": "address",
          "name": "sender",
          "type": "address"
        },
        {
          "internalType": "uint256",
          "name": "tokenId",
          "type": "uint256"
        },
        {
          "internalType": "address",
          "name": "owner",
          "type": "address"
        }
      ],
      "name": "ERC721IncorrectOwner",
      "type": "error"
    },
    {
      "inputs": [
        {
          "internalType": "address",
          "name": "operator",
          "type": "address"
        },
        {
          "internalType": "uint256",
          "name": "tokenId",
          "type": "uint256"
        }
      ],
      "name": "ERC721InsufficientApproval",
      "type": "error"
    },
    {
      "inputs": [
        {
          "internalType": "address",
          "name": "approver",
          "type": "address"
        }
      ],
      "name": "ERC721InvalidApprover",
      "type": "error"
    },
    {
      "inputs": [
        {
          "internalType": "address",
          "name": "operator",
          "type": "address"
        }
      ],
      "name": "ERC721InvalidOperator",
      "type": "error"
    },
    {
      "inputs": [
        {
          "internalType": "address",
          "name": "owner",
          "type": "address"
        }
      ],
      "name": "ERC721InvalidOwner",
      "type": "error"
    },
    {
      "inputs": [
        {
          "internalType": "address",
          "name": "receiver",
          "type": "address"
        }
      ],
      "name": "ERC721InvalidReceiver",
      "type": "error"
    },
    {
      "inputs": [
        {
          "internalType": "address",
          "name": "sender",
          "type": "address"
        }
      ],
      "name": "ERC721InvalidSender",
      "type": "error"
    },
    {
      "inputs": [
        {
          "internalType": "uint256",
          "name": "tokenId",
          "type": "uint256"
        }
      ],
      "name": "ERC721NonexistentToken",
      "type": "error"
    },
    {
      "inputs": [
        {
          "internalType": "address",
          "name": "owner",
          "type": "address"
        }
      ],
      "name": "OwnableInvalidOwner",
      "type": "error"
    },
    {
      "inputs": [
        {
          "internalType": "address",
          "name": "account",
          "type": "address"
        }
      ],
      "name": "OwnableUnauthorizedAccount",
      "type": "error"
    },
    {
      "anonymous": false,
      "inputs": [
        {
          "indexed": true,
          "internalType": "address",
          "name": "owner",
          "type": "address"
        },
        {
          "indexed": true,
          "internalType": "address",
          "name": "approved",
          "type": "address"
        },
        {
          "indexed": true,
          "internalType": "uint256",
          "name": "tokenId",
          "type": "uint256"
        }
      ],
      "name": "Approval",
      "type": "event"
    },
    {
      "anonymous": false,
      "inputs": [
        {
          "indexed": true,
          "internalType": "address",
          "name": "owner",
          "type": "address"
        },
        {
          "indexed": true,
          "internalType": "address",
          "name": "operator",
          "type": "address"
        },
        {
          "indexed": false,
          "internalType": "bool",
          "name": "approved",
          "type": "bool"
        }
      ],
      "name": "ApprovalForAll",
      "type": "event"
    },
    {
      "anonymous": false,
      "inputs": [
        {
          "indexed": false,
          "internalType": "uint256",
          "name": "_fromTokenId",
          "type": "uint256"
        },
        {
          "indexed": false,
          "internalType": "uint256",
          "name": "_toTokenId",
          "type": "uint256"
        }
      ],
      "name": "BatchMetadataUpdate",
      "type": "event"
    },
    {
      "anonymous": false,
      "inputs": [
        {
          "indexed": false,
          "internalType": "uint256",
          "name": "tokenId",
          "type": "uint256"
        }
      ],
      "name": "EggHatched",
      "type": "event"
    },
    {
      "anonymous": false,
      "inputs": [
        {
          "indexed": true,
          "internalType": "address",
          "name": "to",
          "type": "address"
        },
        {
          "indexed": false,
          "internalType": "uint256",
          "name": "tokenId",
          "type": "uint256"
        }
      ],
      "name": "EggMinted",
      "type": "event"
    },
    {
      "anonymous": false,
      "inputs": [
        {
          "indexed": false,
          "internalType": "uint256",
          "name": "_tokenId",
          "type": "uint256"
        }
      ],
      "name": "MetadataUpdate",
      "type": "event"
    },
    {
      "anonymous": false,
      "inputs": [
        {
          "indexed": true,
          "internalType": "address",
          "name": "previousOwner",
          "type": "address"
        },
        {
          "indexed": true,
          "internalType": "address",
          "name": "newOwner",
          "type": "address"
        }
      ],
      "name": "OwnershipTransferred",
      "type": "event"
    },
    {
      "anonymous": false,
      "inputs": [
        {
          "indexed": false,
          "internalType": "uint256",
          "name": "tokenId",
          "type": "uint256"
        },
        {
          "indexed": false,
          "internalType": "uint256",
          "name": "amount",
          "type": "uint256"
        }
      ],
      "name": "SnakeFed",
      "type": "event"
    },
    {
      "anonymous": false,
      "inputs": [
        {
          "indexed": true,
          "internalType": "address",
          "name": "from",
          "type": "address"
        },
        {
          "indexed": true,
          "internalType": "address",
          "name": "to",
          "type": "address"
        },
        {
          "indexed": true,
          "internalType": "uint256",
          "name": "tokenId",
          "type": "uint256"
        }
      ],
      "name": "Transfer",
      "type": "event"
    },
    {
      "inputs": [
        {
          "internalType": "address",
          "name": "to",
          "type": "address"
        },
        {
          "internalType": "uint256",
          "name": "tokenId",
          "type": "uint256"
        }
      ],
      "name": "approve",
      "outputs": [],
      "stateMutability": "nonpayable",
      "type": "function"
    },
    {
      "inputs": [
        {
          "internalType": "address",
          "name": "owner",
          "type": "address"
        }
      ],
      "name": "balanceOf",
      "outputs": [
        {
          "internalType": "uint256",
          "name": "",
          "type": "uint256"
        }
      ],
      "stateMutability": "view",
      "type": "function"
    },
    {
      "inputs": [
        {
          "internalType": "uint256",
          "name": "tokenId",
          "type": "uint256"
        },
        {
          "internalType": "uint256",
          "name": "amount",
          "type": "uint256"
        }
      ],
      "name": "feed",
      "outputs": [],
      "stateMutability": "nonpayable",
      "type": "function"
    },
    {
      "inputs": [],
      "name": "foodToken",
      "outputs": [
        {
          "internalType": "contract ERC20Burnable",
          "name": "",
          "type": "address"
        }
      ],
      "stateMutability": "view",
      "type": "function"
    },
    {
      "inputs": [
        {
          "internalType": "uint256",
          "name": "tokenId",
          "type": "uint256"
        }
      ],
      "name": "getApproved",
      "outputs": [
        {
          "internalType": "address",
          "name": "",
          "type": "address"
        }
      ],
      "stateMutability": "view",
      "type": "function"
    },
    {
      "inputs": [
        {
          "internalType": "address",
          "name": "owner",
          "type": "address"
        }
      ],
      "name": "getOwnedTokens",
      "outputs": [
        {
          "internalType": "uint256[]",
          "name": "",
          "type": "uint256[]"
        }
      ],
      "stateMutability": "view",
      "type": "function"
    },
    {
      "inputs": [
        {
          "internalType": "uint256",
          "name": "tokenId",
          "type": "uint256"
        }
      ],
      "name": "hatch",
      "outputs": [],
      "stateMutability": "nonpayable",
      "type": "function"
    },
    {
      "inputs": [],
      "name": "hatchTime",
      "outputs": [
        {
          "internalType": "uint256",
          "name": "",
          "type": "uint256"
        }
      ],
      "stateMutability": "view",
      "type": "function"
    },
    {
      "inputs": [
        {
          "internalType": "address",
          "name": "owner",
          "type": "address"
        },
        {
          "internalType": "address",
          "name": "operator",
          "type": "address"
        }
      ],
      "name": "isApprovedForAll",
      "outputs": [
        {
          "internalType": "bool",
          "name": "",
          "type": "bool"
        }
      ],
      "stateMutability": "view",
      "type": "function"
    },
    {
      "inputs": [],
      "name": "mintEgg",
      "outputs": [
        {
          "internalType": "uint256",
          "name": "",
          "type": "uint256"
        }
      ],
      "stateMutability": "nonpayable",
      "type": "function"
    },
    {
      "inputs": [],
      "name": "name",
      "outputs": [
        {
          "internalType": "string",
          "name": "",
          "type": "string"
        }
      ],
      "stateMutability": "view",
      "type": "function"
    },
    {
      "inputs": [],
      "name": "nextTokenId",
      "outputs": [
        {
          "internalType": "uint256",
          "name": "",
          "type": "uint256"
        }
      ],
      "stateMutability": "view",
      "type": "function"
    },
    {
      "inputs": [],
      "name": "owner",
      "outputs": [
        {
          "internalType": "address",
          "name": "",
          "type": "address"
        }
      ],
      "stateMutability": "view",
      "type": "function"
    },
    {
      "inputs": [
        {
          "internalType": "uint256",
          "name": "tokenId",
          "type": "uint256"
        }
      ],
      "name": "ownerOf",
      "outputs": [
        {
          "internalType": "address",
          "name": "",
          "type": "address"
        }
      ],
      "stateMutability": "view",
      "type": "function"
    },
    {
      "inputs": [],
      "name": "renounceOwnership",
      "outputs": [],
      "stateMutability": "nonpayable",
      "type": "function"
    },
    {
      "inputs": [
        {
          "internalType": "address",
          "name": "from",
          "type": "address"
        },
        {
          "internalType": "address",
          "name": "to",
          "type": "address"
        },
        {
          "internalType": "uint256",
          "name": "tokenId",
          "type": "uint256"
        }
      ],
      "name": "safeTransferFrom",
      "outputs": [],
      "stateMutability": "nonpayable",
      "type": "function"
    },
    {
      "inputs": [
        {
          "internalType": "address",
          "name": "from",
          "type": "address"
        },
        {
          "internalType": "address",
          "name": "to",
          "type": "address"
        },
        {
          "internalType": "uint256",
          "name": "tokenId",
          "type": "uint256"
        },
        {
          "internalType": "bytes",
          "name": "data",
          "type": "bytes"
        }
      ],
      "name": "safeTransferFrom",
      "outputs": [],
      "stateMutability": "nonpayable",
      "type": "function"
    },
    {
      "inputs": [
        {
          "internalType": "address",
          "name": "operator",
          "type": "address"
        },
        {
          "internalType": "bool",
          "name": "approved",
          "type": "bool"
        }
      ],
      "name": "setApprovalForAll",
      "outputs": [],
      "stateMutability": "nonpayable",
      "type": "function"
    },
    {
      "inputs": [
        {
          "internalType": "uint256",
          "name": "tokenId",
          "type": "uint256"
        },
        {
          "internalType": "string",
          "name": "uri",
          "type": "string"
        }
      ],
      "name": "setEggURI",
      "outputs": [],
      "stateMutability": "nonpayable",
      "type": "function"
    },
    {
      "inputs": [
        {
          "internalType": "uint256",
          "name": "",
          "type": "uint256"
        }
      ],
      "name": "snakes",
      "outputs": [
        {
          "internalType": "uint256",
          "name": "birthTime",
          "type": "uint256"
        },
        {
          "internalType": "string",
          "name": "color",
          "type": "string"
        },
        {
          "internalType": "string",
          "name": "speckles",
          "type": "string"
        },
        {
          "internalType": "bool",
          "name": "hatched",
          "type": "bool"
        },
        {
          "internalType": "uint256",
          "name": "lastFed",
          "type": "uint256"
        }
      ],
      "stateMutability": "view",
      "type": "function"
    },
    {
      "inputs": [
        {
          "internalType": "bytes4",
          "name": "interfaceId",
          "type": "bytes4"
        }
      ],
      "name": "supportsInterface",
      "outputs": [
        {
          "internalType": "bool",
          "name": "",
          "type": "bool"
        }
      ],
      "stateMutability": "view",
      "type": "function"
    },
    {
      "inputs": [],
      "name": "symbol",
      "outputs": [
        {
          "internalType": "string",
          "name": "",
          "type": "string"
        }
      ],
      "stateMutability": "view",
      "type": "function"
    },
    {
      "inputs": [
        {
          "internalType": "uint256",
          "name": "tokenId",
          "type": "uint256"
        }
      ],
      "name": "tokenURI",
      "outputs": [
        {
          "internalType": "string",
          "name": "",
          "type": "string"
        }
      ],
      "stateMutability": "view",
      "type": "function"
    },
    {
      "inputs": [
        {
          "internalType": "address",
          "name": "from",
          "type": "address"
        },
        {
          "internalType": "address",
          "name": "to",
          "type": "address"
        },
        {
          "internalType": "uint256",
          "name": "tokenId",
          "type": "uint256"
        }
      ],
      "name": "transferFrom",
      "outputs": [],
      "stateMutability": "nonpayable",
      "type": "function"
    },
    {
      "inputs": [
        {
          "internalType": "address",
          "name": "newOwner",
          "type": "address"
        }
      ],
      "name": "transferOwnership",
      "outputs": [],
      "stateMutability": "nonpayable",
      "type": "function"
    },
    {
      "inputs": [],
      "name": "withdrawFood",
      "outputs": [],
      "stateMutability": "nonpayable",
      "type": "function"
    }
  ],
  "bytecode": "0x608060405234801561001057600080fd5b50336040518060400160405280600881526020017f536e616b654567670000000000000000000000000000000000000000000000008152506040518060400160405280600381526020017f4547470000000000000000000000000000000000000000000000000000000000815250816000908161008d91906104a3565b50806001908161009d91906104a3565b505050600073ffffffffffffffffffffffffffffffffffffffff168173ffffffffffffffffffffffffffffffffffffffff16036101125760006040517f1e4fbdf700000000000000000000000000000000000000000000000000000000815260040161010991906105b6565b60405180910390fd5b6101218161018d60201b60201c565b507336c02da8a0983159322a80ffe9f24b1acff8b570600860006101000a81548173ffffffffffffffffffffffffffffffffffffffff021916908373ffffffffffffffffffffffffffffffffffffffff1602179055506102586009819055506000600a819055506105d1565b6000600760009054906101000a900473ffffffffffffffffffffffffffffffffffffffff16905081600760006101000a81548173ffffffffffffffffffffffffffffffffffffffff021916908373ffffffffffffffffffffffffffffffffffffffff1602179055508173ffffffffffffffffffffffffffffffffffffffff168173ffffffffffffffffffffffffffffffffffffffff167f8be0079c531659141344cd1fd0a4f28419497f9722a3daafe3b4186f6b6457e060405160405180910390a35050565b600081519050919050565b7f4e487b7100000000000000000000000000000000000000000000000000000000600052604160045260246000fd5b7f4e487b7100000000000000000000000000000000000000000000000000000000600052602260045260246000fd5b600060028204905060018216806102d457607f821691505b6020821081036102e7576102e661028d565b5b50919050565b60008190508160005260206000209050919050565b60006020601f8301049050919050565b600082821b905092915050565b60006008830261034f7fffffffffffffffffffffffffffffffffffffffffffffffffffffffffffffffff82610312565b6103598683610312565b95508019841693508086168417925050509392505050565b6000819050919050565b6000819050919050565b60006103a061039b61039684610371565b61037b565b610371565b9050919050565b6000819050919050565b6103ba83610385565b6103ce6103c6826103a7565b84845461031f565b825550505050565b600090565b6103e36103d6565b6103ee8184846103b1565b505050565b5b81811015610412576104076000826103db565b6001810190506103f4565b5050565b601f82111561045757610428816102ed565b61043184610302565b81016020851015610440578190505b61045461044c85610302565b8301826103f3565b50505b505050565b600082821c905092915050565b600061047a6000198460080261045c565b1980831691505092915050565b60006104938383610469565b9150826002028217905092915050565b6104ac82610253565b67ffffffffffffffff8111156104c5576104c461025e565b5b6104cf82546102bc565b6104da828285610416565b600060209050601f83116001811461050d57600084156104fb578287015190505b6105058582610487565b86555061056d565b601f19841661051b866102ed565b60005b828110156105435784890151825560018201915060208501945060208101905061051e565b86831015610560578489015161055c601f891682610469565b8355505b6001600288020188555050505b505050505050565b600073ffffffffffffffffffffffffffffffffffffffff82169050919050565b60006105a082610575565b9050919050565b6105b081610595565b82525050565b60006020820190506105cb60008301846105a7565b92915050565b613fd9806105e06000396000f3fe608060405234801561001057600080fd5b506004361061018e5760003560e01c806370a08231116100de578063b88d4fde11610097578063c8c1884211610071578063c8c1884214610461578063d9d616551461047d578063e985e9c5146104ad578063f2fde38b146104dd5761018e565b8063b88d4fde146103f7578063c71d8bad14610413578063c87b56dd146104315761018e565b806370a0823114610347578063715018a61461037757806375794a3c146103815780638da5cb5b1461039f57806395d89b41146103bd578063a22cb465146103db5761018e565b8063307c02a91161014b5780635289b1e8116101255780635289b1e8146102d35780636352211e146102dd5780636cdc3c421461030d5780636d6aa5bb1461032b5761018e565b8063307c02a91461026557806339e99ad81461028357806342842e0e146102b75761018e565b806301ffc9a71461019357806306fdde03146101c3578063081812fc146101e1578063095ea7b31461021157806323b872dd1461022d5780632c6eedf914610249575b600080fd5b6101ad60048036038101906101a89190612c0f565b6104f9565b6040516101ba9190612c57565b60405180910390f35b6101cb61055a565b6040516101d89190612d02565b60405180910390f35b6101fb60048036038101906101f69190612d5a565b6105ec565b6040516102089190612dc8565b60405180910390f35b61022b60048036038101906102269190612e0f565b610608565b005b61024760048036038101906102429190612e4f565b61061e565b005b610263600480360381019061025e9190612fd7565b610720565b005b61026d610736565b60405161027a9190613042565b60405180910390f35b61029d60048036038101906102989190612d5a565b6108b0565b6040516102ae95949392919061305d565b60405180910390f35b6102d160048036038101906102cc9190612e4f565b610a03565b005b6102db610a23565b005b6102f760048036038101906102f29190612d5a565b610b6f565b6040516103049190612dc8565b60405180910390f35b610315610b81565b604051610322919061311d565b60405180910390f35b61034560048036038101906103409190613138565b610ba7565b005b610361600480360381019061035c9190613178565b611006565b60405161036e9190613042565b60405180910390f35b61037f6110c0565b005b6103896110d4565b6040516103969190613042565b60405180910390f35b6103a76110da565b6040516103b49190612dc8565b60405180910390f35b6103c5611104565b6040516103d29190612d02565b60405180910390f35b6103f560048036038101906103f091906131d1565b611196565b005b610411600480360381019061040c91906132b2565b6111ac565b005b61041b6111d1565b6040516104289190613042565b60405180910390f35b61044b60048036038101906104469190612d5a565b6111d7565b6040516104589190612d02565b60405180910390f35b61047b60048036038101906104769190612d5a565b6112ea565b005b61049760048036038101906104929190613178565b611487565b6040516104a491906133f3565b60405180910390f35b6104c760048036038101906104c29190613415565b61167f565b6040516104d49190612c57565b60405180910390f35b6104f760048036038101906104f29190613178565b611713565b005b6000634906490660e01b7bffffffffffffffffffffffffffffffffffffffffffffffffffffffff1916827bffffffffffffffffffffffffffffffffffffffffffffffffffffffff19161480610553575061055282611799565b5b9050919050565b60606000805461056990613484565b80601f016020809104026020016040519081016040528092919081815260200182805461059590613484565b80156105e25780601f106105b7576101008083540402835291602001916105e2565b820191906000526020600020905b8154815290600101906020018083116105c557829003601f168201915b5050505050905090565b60006105f78261187b565b5061060182611903565b9050919050565b61061a8282610615611940565b611948565b5050565b600073ffffffffffffffffffffffffffffffffffffffff168273ffffffffffffffffffffffffffffffffffffffff16036106905760006040517f64a0ae920000000000000000000000000000000000000000000000000000000081526004016106879190612dc8565b60405180910390fd5b60006106a4838361069f611940565b61195a565b90508373ffffffffffffffffffffffffffffffffffffffff168173ffffffffffffffffffffffffffffffffffffffff161461071a578382826040517f64283d7b000000000000000000000000000000000000000000000000000000008152600401610711939291906134b5565b60405180910390fd5b50505050565b610728611b74565b6107328282611bfb565b5050565b600080600a549050600a60008154809291906107519061351b565b91905055506107603382611c57565b61079f816040518060400160405280601a81526020017f697066733a2f2f706c616365686f6c6465722d6567672d757269000000000000815250611bfb565b60006107aa82611d50565b905060006107b783611e69565b90506040518060a0016040528042815260200183815260200182815260200160001515815260200142815250600b60008581526020019081526020016000206000820151816000015560208201518160010190816108159190613705565b50604082015181600201908161082b9190613705565b5060608201518160030160006101000a81548160ff021916908315150217905550608082015181600401559050503373ffffffffffffffffffffffffffffffffffffffff167ff9c8014ab81abf7f6fc09dfb350fc7f382935891056dc84bed8f29107b03fed68460405161089f9190613042565b60405180910390a282935050505090565b600b6020528060005260406000206000915090508060000154908060010180546108d990613484565b80601f016020809104026020016040519081016040528092919081815260200182805461090590613484565b80156109525780601f1061092757610100808354040283529160200191610952565b820191906000526020600020905b81548152906001019060200180831161093557829003601f168201915b50505050509080600201805461096790613484565b80601f016020809104026020016040519081016040528092919081815260200182805461099390613484565b80156109e05780601f106109b5576101008083540402835291602001916109e0565b820191906000526020600020905b8154815290600101906020018083116109c357829003601f168201915b5050505050908060030160009054906101000a900460ff16908060040154905085565b610a1e838383604051806020016040528060008152506111ac565b505050565b610a2b611b74565b6000600860009054906101000a900473ffffffffffffffffffffffffffffffffffffffff1673ffffffffffffffffffffffffffffffffffffffff166370a08231306040518263ffffffff1660e01b8152600401610a889190612dc8565b602060405180830381865afa158015610aa5573d6000803e3d6000fd5b505050506040513d601f19601f82011682018060405250810190610ac991906137ec565b9050600860009054906101000a900473ffffffffffffffffffffffffffffffffffffffff1673ffffffffffffffffffffffffffffffffffffffff1663a9059cbb33836040518363ffffffff1660e01b8152600401610b28929190613819565b6020604051808303816000875af1158015610b47573d6000803e3d6000fd5b505050506040513d601f19601f82011682018060405250810190610b6b9190613857565b5050565b6000610b7a8261187b565b9050919050565b600860009054906101000a900473ffffffffffffffffffffffffffffffffffffffff1681565b3373ffffffffffffffffffffffffffffffffffffffff16610bc783610b6f565b73ffffffffffffffffffffffffffffffffffffffff1614610c1d576040517f08c379a0000000000000000000000000000000000000000000000000000000008152600401610c14906138d0565b60405180910390fd5b600b600083815260200190815260200160002060030160009054906101000a900460ff16610c80576040517f08c379a0000000000000000000000000000000000000000000000000000000008152600401610c779061393c565b60405180910390fd5b6000600b60008481526020019081526020016000206004015442610ca4919061395c565b90506000613840821015610cc257678ac7230489e800009050610cea565b620151808210610cdd5768056bc75e2d631000009050610ce9565b678ac7230489e8000090505b5b80831015610d2d576040517f08c379a0000000000000000000000000000000000000000000000000000000008152600401610d24906139dc565b60405180910390fd5b600860009054906101000a900473ffffffffffffffffffffffffffffffffffffffff1673ffffffffffffffffffffffffffffffffffffffff1663095ea7b333856040518363ffffffff1660e01b8152600401610d8a929190613819565b6020604051808303816000875af1158015610da9573d6000803e3d6000fd5b505050506040513d601f19601f82011682018060405250810190610dcd9190613857565b506000600860009054906101000a900473ffffffffffffffffffffffffffffffffffffffff1673ffffffffffffffffffffffffffffffffffffffff166323b872dd3330876040518463ffffffff1660e01b8152600401610e2f939291906139fc565b6020604051808303816000875af1158015610e4e573d6000803e3d6000fd5b505050506040513d601f19601f82011682018060405250810190610e729190613857565b905080610eb4576040517f08c379a0000000000000000000000000000000000000000000000000000000008152600401610eab90613a7f565b60405180910390fd5b600860009054906101000a900473ffffffffffffffffffffffffffffffffffffffff1673ffffffffffffffffffffffffffffffffffffffff1663095ea7b330866040518363ffffffff1660e01b8152600401610f11929190613819565b6020604051808303816000875af1158015610f30573d6000803e3d6000fd5b505050506040513d601f19601f82011682018060405250810190610f549190613857565b50600860009054906101000a900473ffffffffffffffffffffffffffffffffffffffff1673ffffffffffffffffffffffffffffffffffffffff166379cc679030866040518363ffffffff1660e01b8152600401610fb2929190613819565b600060405180830381600087803b158015610fcc57600080fd5b505af1158015610fe0573d6000803e3d6000fd5b5050505042600b6000878152602001908152602001600020600401819055505050505050565b60008073ffffffffffffffffffffffffffffffffffffffff168273ffffffffffffffffffffffffffffffffffffffff16036110795760006040517f89c62b640000000000000000000000000000000000000000000000000000000081526004016110709190612dc8565b60405180910390fd5b600360008373ffffffffffffffffffffffffffffffffffffffff1673ffffffffffffffffffffffffffffffffffffffff168152602001908152602001600020549050919050565b6110c8611b74565b6110d26000611f82565b565b600a5481565b6000600760009054906101000a900473ffffffffffffffffffffffffffffffffffffffff16905090565b60606001805461111390613484565b80601f016020809104026020016040519081016040528092919081815260200182805461113f90613484565b801561118c5780601f106111615761010080835404028352916020019161118c565b820191906000526020600020905b81548152906001019060200180831161116f57829003601f168201915b5050505050905090565b6111a86111a1611940565b8383612048565b5050565b6111b784848461061e565b6111cb6111c2611940565b858585856121b7565b50505050565b60095481565b60606111e28261187b565b50600060066000848152602001908152602001600020805461120390613484565b80601f016020809104026020016040519081016040528092919081815260200182805461122f90613484565b801561127c5780601f106112515761010080835404028352916020019161127c565b820191906000526020600020905b81548152906001019060200180831161125f57829003601f168201915b50505050509050600061128d612368565b905060008151036112a25781925050506112e5565b6000825111156112d75780826040516020016112bf929190613adb565b604051602081830303815290604052925050506112e5565b6112e08461237f565b925050505b919050565b3373ffffffffffffffffffffffffffffffffffffffff1661130a82610b6f565b73ffffffffffffffffffffffffffffffffffffffff1614611360576040517f08c379a000000000000000000000000000000000000000000000000000000000815260040161135790613b4b565b60405180910390fd5b6000600b600083815260200190815260200160002090508060030160009054906101000a900460ff16156113c9576040517f08c379a00000000000000000000000000000000000000000000000000000000081526004016113c090613bb7565b60405180910390fd5b60095481600001546113db9190613bd7565b42101561141d576040517f08c379a000000000000000000000000000000000000000000000000000000000815260040161141490613c57565b60405180910390fd5b60018160030160006101000a81548160ff02191690831515021790555061144c82611447846123e8565b611bfb565b7f7d5d54f407ac1898c968f412b395ec5028e137135c054e8e6bd091c032de527b8260405161147b9190613042565b60405180910390a15050565b60606000600a5490506000808267ffffffffffffffff8111156114ad576114ac612eac565b5b6040519080825280602002602001820160405280156114db5781602001602082028036833780820191505090505b50905060005b838110156115d2573073ffffffffffffffffffffffffffffffffffffffff16636352211e826040518263ffffffff1660e01b81526004016115229190613042565b602060405180830381865afa92505050801561155c57506040513d601f19601f820116820180604052508101906115599190613c8c565b60015b156115c5578673ffffffffffffffffffffffffffffffffffffffff168173ffffffffffffffffffffffffffffffffffffffff16036115c357818385815181106115a8576115a7613cb9565b5b60200260200101818152505083806115bf9061351b565b9450505b505b80806001019150506114e1565b5060008267ffffffffffffffff8111156115ef576115ee612eac565b5b60405190808252806020026020018201604052801561161d5781602001602082028036833780820191505090505b50905060005b838110156116725782818151811061163e5761163d613cb9565b5b602002602001015182828151811061165957611658613cb9565b5b6020026020010181815250508080600101915050611623565b5080945050505050919050565b6000600560008473ffffffffffffffffffffffffffffffffffffffff1673ffffffffffffffffffffffffffffffffffffffff16815260200190815260200160002060008373ffffffffffffffffffffffffffffffffffffffff1673ffffffffffffffffffffffffffffffffffffffff16815260200190815260200160002060009054906101000a900460ff16905092915050565b61171b611b74565b600073ffffffffffffffffffffffffffffffffffffffff168173ffffffffffffffffffffffffffffffffffffffff160361178d5760006040517f1e4fbdf70000000000000000000000000000000000000000000000000000000081526004016117849190612dc8565b60405180910390fd5b61179681611f82565b50565b60007f80ac58cd000000000000000000000000000000000000000000000000000000007bffffffffffffffffffffffffffffffffffffffffffffffffffffffff1916827bffffffffffffffffffffffffffffffffffffffffffffffffffffffff1916148061186457507f5b5e139f000000000000000000000000000000000000000000000000000000007bffffffffffffffffffffffffffffffffffffffffffffffffffffffff1916827bffffffffffffffffffffffffffffffffffffffffffffffffffffffff1916145b80611874575061187382612591565b5b9050919050565b600080611887836125fb565b9050600073ffffffffffffffffffffffffffffffffffffffff168173ffffffffffffffffffffffffffffffffffffffff16036118fa57826040517f7e2732890000000000000000000000000000000000000000000000000000000081526004016118f19190613042565b60405180910390fd5b80915050919050565b60006004600083815260200190815260200160002060009054906101000a900473ffffffffffffffffffffffffffffffffffffffff169050919050565b600033905090565b6119558383836001612638565b505050565b600080611966846125fb565b9050600073ffffffffffffffffffffffffffffffffffffffff168373ffffffffffffffffffffffffffffffffffffffff16146119a8576119a78184866127fd565b5b600073ffffffffffffffffffffffffffffffffffffffff168173ffffffffffffffffffffffffffffffffffffffff1614611a39576119ea600085600080612638565b6001600360008373ffffffffffffffffffffffffffffffffffffffff1673ffffffffffffffffffffffffffffffffffffffff168152602001908152602001600020600082825403925050819055505b600073ffffffffffffffffffffffffffffffffffffffff168573ffffffffffffffffffffffffffffffffffffffff1614611abc576001600360008773ffffffffffffffffffffffffffffffffffffffff1673ffffffffffffffffffffffffffffffffffffffff168152602001908152602001600020600082825401925050819055505b846002600086815260200190815260200160002060006101000a81548173ffffffffffffffffffffffffffffffffffffffff021916908373ffffffffffffffffffffffffffffffffffffffff160217905550838573ffffffffffffffffffffffffffffffffffffffff168273ffffffffffffffffffffffffffffffffffffffff167fddf252ad1be2c89b69c2b068fc378daa952ba7f163c4a11628f55a4df523b3ef60405160405180910390a4809150509392505050565b611b7c611940565b73ffffffffffffffffffffffffffffffffffffffff16611b9a6110da565b73ffffffffffffffffffffffffffffffffffffffff1614611bf957611bbd611940565b6040517f118cdaa7000000000000000000000000000000000000000000000000000000008152600401611bf09190612dc8565b60405180910390fd5b565b80600660008481526020019081526020016000209081611c1b9190613705565b507ff8e1a15aba9398e019f0b49df1a4fde98ee17ae345cb5f6b5e2c27f5033e8ce782604051611c4b9190613042565b60405180910390a15050565b600073ffffffffffffffffffffffffffffffffffffffff168273ffffffffffffffffffffffffffffffffffffffff1603611cc95760006040517f64a0ae92000000000000000000000000000000000000000000000000000000008152600401611cc09190612dc8565b60405180910390fd5b6000611cd78383600061195a565b9050600073ffffffffffffffffffffffffffffffffffffffff168173ffffffffffffffffffffffffffffffffffffffff1614611d4b5760006040517f73c6ac6e000000000000000000000000000000000000000000000000000000008152600401611d429190612dc8565b60405180910390fd5b505050565b6060600060405180606001604052806040518060400160405280600581526020017f677265656e00000000000000000000000000000000000000000000000000000081525081526020016040518060400160405280600581526020017f62726f776e00000000000000000000000000000000000000000000000000000081525081526020016040518060400160405280600481526020017f676f6c64000000000000000000000000000000000000000000000000000000008152508152509050806003423386604051602001611e2893929190613d51565b6040516020818303038152906040528051906020012060001c611e4b9190613dbd565b60038110611e5c57611e5b613cb9565b5b6020020151915050919050565b6060600060405180606001604052806040518060400160405280600481526020017f6e6f6e650000000000000000000000000000000000000000000000000000000081525081526020016040518060400160405280600481526020017f646f74730000000000000000000000000000000000000000000000000000000081525081526020016040518060400160405280600781526020017f73747269706573000000000000000000000000000000000000000000000000008152508152509050806003443386604051602001611f4193929190613d51565b6040516020818303038152906040528051906020012060001c611f649190613dbd565b60038110611f7557611f74613cb9565b5b6020020151915050919050565b6000600760009054906101000a900473ffffffffffffffffffffffffffffffffffffffff16905081600760006101000a81548173ffffffffffffffffffffffffffffffffffffffff021916908373ffffffffffffffffffffffffffffffffffffffff1602179055508173ffffffffffffffffffffffffffffffffffffffff168173ffffffffffffffffffffffffffffffffffffffff167f8be0079c531659141344cd1fd0a4f28419497f9722a3daafe3b4186f6b6457e060405160405180910390a35050565b600073ffffffffffffffffffffffffffffffffffffffff168273ffffffffffffffffffffffffffffffffffffffff16036120b957816040517f5b08ba180000000000000000000000000000000000000000000000000000000081526004016120b09190612dc8565b60405180910390fd5b80600560008573ffffffffffffffffffffffffffffffffffffffff1673ffffffffffffffffffffffffffffffffffffffff16815260200190815260200160002060008473ffffffffffffffffffffffffffffffffffffffff1673ffffffffffffffffffffffffffffffffffffffff16815260200190815260200160002060006101000a81548160ff0219169083151502179055508173ffffffffffffffffffffffffffffffffffffffff168373ffffffffffffffffffffffffffffffffffffffff167f17307eab39ab6107e8899845ad3d59bd9653f200f220920489ca2b5937696c31836040516121aa9190612c57565b60405180910390a3505050565b60008373ffffffffffffffffffffffffffffffffffffffff163b1115612361578273ffffffffffffffffffffffffffffffffffffffff1663150b7a02868685856040518563ffffffff1660e01b81526004016122169493929190613e43565b6020604051808303816000875af192505050801561225257506040513d601f19601f8201168201806040525081019061224f9190613ea4565b60015b6122d6573d8060008114612282576040519150601f19603f3d011682016040523d82523d6000602084013e612287565b606091505b5060008151036122ce57836040517f64a0ae920000000000000000000000000000000000000000000000000000000081526004016122c59190612dc8565b60405180910390fd5b805181602001fd5b63150b7a0260e01b7bffffffffffffffffffffffffffffffffffffffffffffffffffffffff1916817bffffffffffffffffffffffffffffffffffffffffffffffffffffffff19161461235f57836040517f64a0ae920000000000000000000000000000000000000000000000000000000081526004016123569190612dc8565b60405180910390fd5b505b5050505050565b606060405180602001604052806000815250905090565b606061238a8261187b565b506000612395612368565b905060008151116123b557604051806020016040528060008152506123e0565b806123bf846128c1565b6040516020016123d0929190613adb565b6040516020818303038152906040525b915050919050565b60606000600b60008481526020019081526020016000206040518060a00160405290816000820154815260200160018201805461242490613484565b80601f016020809104026020016040519081016040528092919081815260200182805461245090613484565b801561249d5780601f106124725761010080835404028352916020019161249d565b820191906000526020600020905b81548152906001019060200180831161248057829003601f168201915b505050505081526020016002820180546124b690613484565b80601f01602080910402602001604051908101604052809291908181526020018280546124e290613484565b801561252f5780601f106125045761010080835404028352916020019161252f565b820191906000526020600020905b81548152906001019060200180831161251257829003601f168201915b505050505081526020016003820160009054906101000a900460ff1615151515815260200160048201548152505090508060200151816040015160405160200161257a929190613f69565b604051602081830303815290604052915050919050565b60007f01ffc9a7000000000000000000000000000000000000000000000000000000007bffffffffffffffffffffffffffffffffffffffffffffffffffffffff1916827bffffffffffffffffffffffffffffffffffffffffffffffffffffffff1916149050919050565b60006002600083815260200190815260200160002060009054906101000a900473ffffffffffffffffffffffffffffffffffffffff169050919050565b80806126715750600073ffffffffffffffffffffffffffffffffffffffff168273ffffffffffffffffffffffffffffffffffffffff1614155b156127a55760006126818461187b565b9050600073ffffffffffffffffffffffffffffffffffffffff168373ffffffffffffffffffffffffffffffffffffffff16141580156126ec57508273ffffffffffffffffffffffffffffffffffffffff168173ffffffffffffffffffffffffffffffffffffffff1614155b80156126ff57506126fd818461167f565b155b1561274157826040517fa9fbf51f0000000000000000000000000000000000000000000000000000000081526004016127389190612dc8565b60405180910390fd5b81156127a357838573ffffffffffffffffffffffffffffffffffffffff168273ffffffffffffffffffffffffffffffffffffffff167f8c5be1e5ebec7d5bd14f71427d1e84f3dd0314c0f7b2291e5b200ac8c7c3b92560405160405180910390a45b505b836004600085815260200190815260200160002060006101000a81548173ffffffffffffffffffffffffffffffffffffffff021916908373ffffffffffffffffffffffffffffffffffffffff16021790555050505050565b61280883838361298f565b6128bc57600073ffffffffffffffffffffffffffffffffffffffff168373ffffffffffffffffffffffffffffffffffffffff160361287d57806040517f7e2732890000000000000000000000000000000000000000000000000000000081526004016128749190613042565b60405180910390fd5b81816040517f177e802f0000000000000000000000000000000000000000000000000000000081526004016128b3929190613819565b60405180910390fd5b505050565b6060600060016128d084612a50565b01905060008167ffffffffffffffff8111156128ef576128ee612eac565b5b6040519080825280601f01601f1916602001820160405280156129215781602001600182028036833780820191505090505b509050600082602001820190505b600115612984578080600190039150507f3031323334353637383961626364656600000000000000000000000000000000600a86061a8153600a858161297857612977613d8e565b5b0494506000850361292f575b819350505050919050565b60008073ffffffffffffffffffffffffffffffffffffffff168373ffffffffffffffffffffffffffffffffffffffff1614158015612a4757508273ffffffffffffffffffffffffffffffffffffffff168473ffffffffffffffffffffffffffffffffffffffff161480612a085750612a07848461167f565b5b80612a4657508273ffffffffffffffffffffffffffffffffffffffff16612a2e83611903565b73ffffffffffffffffffffffffffffffffffffffff16145b5b90509392505050565b600080600090507a184f03e93ff9f4daa797ed6e38ed64bf6a1f0100000000000000008310612aae577a184f03e93ff9f4daa797ed6e38ed64bf6a1f0100000000000000008381612aa457612aa3613d8e565b5b0492506040810190505b6d04ee2d6d415b85acef81000000008310612aeb576d04ee2d6d415b85acef81000000008381612ae157612ae0613d8e565b5b0492506020810190505b662386f26fc100008310612b1a57662386f26fc100008381612b1057612b0f613d8e565b5b0492506010810190505b6305f5e1008310612b43576305f5e1008381612b3957612b38613d8e565b5b0492506008810190505b6127108310612b68576127108381612b5e57612b5d613d8e565b5b0492506004810190505b60648310612b8b5760648381612b8157612b80613d8e565b5b0492506002810190505b600a8310612b9a576001810190505b80915050919050565b6000604051905090565b600080fd5b600080fd5b60007fffffffff0000000000000000000000000000000000000000000000000000000082169050919050565b612bec81612bb7565b8114612bf757600080fd5b50565b600081359050612c0981612be3565b92915050565b600060208284031215612c2557612c24612bad565b5b6000612c3384828501612bfa565b91505092915050565b60008115159050919050565b612c5181612c3c565b82525050565b6000602082019050612c6c6000830184612c48565b92915050565b600081519050919050565b600082825260208201905092915050565b60005b83811015612cac578082015181840152602081019050612c91565b60008484015250505050565b6000601f19601f8301169050919050565b6000612cd482612c72565b612cde8185612c7d565b9350612cee818560208601612c8e565b612cf781612cb8565b840191505092915050565b60006020820190508181036000830152612d1c8184612cc9565b905092915050565b6000819050919050565b612d3781612d24565b8114612d4257600080fd5b50565b600081359050612d5481612d2e565b92915050565b600060208284031215612d7057612d6f612bad565b5b6000612d7e84828501612d45565b91505092915050565b600073ffffffffffffffffffffffffffffffffffffffff82169050919050565b6000612db282612d87565b9050919050565b612dc281612da7565b82525050565b6000602082019050612ddd6000830184612db9565b92915050565b612dec81612da7565b8114612df757600080fd5b50565b600081359050612e0981612de3565b92915050565b60008060408385031215612e2657612e25612bad565b5b6000612e3485828601612dfa565b9250506020612e4585828601612d45565b9150509250929050565b600080600060608486031215612e6857612e67612bad565b5b6000612e7686828701612dfa565b9350506020612e8786828701612dfa565b9250506040612e9886828701612d45565b9150509250925092565b600080fd5b600080fd5b7f4e487b7100000000000000000000000000000000000000000000000000000000600052604160045260246000fd5b612ee482612cb8565b810181811067ffffffffffffffff82111715612f0357612f02612eac565b5b80604052505050565b6000612f16612ba3565b9050612f228282612edb565b919050565b600067ffffffffffffffff821115612f4257612f41612eac565b5b612f4b82612cb8565b9050602081019050919050565b82818337600083830152505050565b6000612f7a612f7584612f27565b612f0c565b905082815260208101848484011115612f9657612f95612ea7565b5b612fa1848285612f58565b509392505050565b600082601f830112612fbe57612fbd612ea2565b5b8135612fce848260208601612f67565b91505092915050565b60008060408385031215612fee57612fed612bad565b5b6000612ffc85828601612d45565b925050602083013567ffffffffffffffff81111561301d5761301c612bb2565b5b61302985828601612fa9565b9150509250929050565b61303c81612d24565b82525050565b60006020820190506130576000830184613033565b92915050565b600060a0820190506130726000830188613033565b81810360208301526130848187612cc9565b905081810360408301526130988186612cc9565b90506130a76060830185612c48565b6130b46080830184613033565b9695505050505050565b6000819050919050565b60006130e36130de6130d984612d87565b6130be565b612d87565b9050919050565b60006130f5826130c8565b9050919050565b6000613107826130ea565b9050919050565b613117816130fc565b82525050565b6000602082019050613132600083018461310e565b92915050565b6000806040838503121561314f5761314e612bad565b5b600061315d85828601612d45565b925050602061316e85828601612d45565b9150509250929050565b60006020828403121561318e5761318d612bad565b5b600061319c84828501612dfa565b91505092915050565b6131ae81612c3c565b81146131b957600080fd5b50565b6000813590506131cb816131a5565b92915050565b600080604083850312156131e8576131e7612bad565b5b60006131f685828601612dfa565b9250506020613207858286016131bc565b9150509250929050565b600067ffffffffffffffff82111561322c5761322b612eac565b5b61323582612cb8565b9050602081019050919050565b600061325561325084613211565b612f0c565b90508281526020810184848401111561327157613270612ea7565b5b61327c848285612f58565b509392505050565b600082601f83011261329957613298612ea2565b5b81356132a9848260208601613242565b91505092915050565b600080600080608085870312156132cc576132cb612bad565b5b60006132da87828801612dfa565b94505060206132eb87828801612dfa565b93505060406132fc87828801612d45565b925050606085013567ffffffffffffffff81111561331d5761331c612bb2565b5b61332987828801613284565b91505092959194509250565b600081519050919050565b600082825260208201905092915050565b6000819050602082019050919050565b61336a81612d24565b82525050565b600061337c8383613361565b60208301905092915050565b6000602082019050919050565b60006133a082613335565b6133aa8185613340565b93506133b583613351565b8060005b838110156133e65781516133cd8882613370565b97506133d883613388565b9250506001810190506133b9565b5085935050505092915050565b6000602082019050818103600083015261340d8184613395565b905092915050565b6000806040838503121561342c5761342b612bad565b5b600061343a85828601612dfa565b925050602061344b85828601612dfa565b9150509250929050565b7f4e487b7100000000000000000000000000000000000000000000000000000000600052602260045260246000fd5b6000600282049050600182168061349c57607f821691505b6020821081036134af576134ae613455565b5b50919050565b60006060820190506134ca6000830186612db9565b6134d76020830185613033565b6134e46040830184612db9565b949350505050565b7f4e487b7100000000000000000000000000000000000000000000000000000000600052601160045260246000fd5b600061352682612d24565b91507fffffffffffffffffffffffffffffffffffffffffffffffffffffffffffffffff8203613558576135576134ec565b5b600182019050919050565b60008190508160005260206000209050919050565b60006020601f8301049050919050565b600082821b905092915050565b6000600883026135c57fffffffffffffffffffffffffffffffffffffffffffffffffffffffffffffffff82613588565b6135cf8683613588565b95508019841693508086168417925050509392505050565b60006136026135fd6135f884612d24565b6130be565b612d24565b9050919050565b6000819050919050565b61361c836135e7565b61363061362882613609565b848454613595565b825550505050565b600090565b613645613638565b613650818484613613565b505050565b5b818110156136745761366960008261363d565b600181019050613656565b5050565b601f8211156136b95761368a81613563565b61369384613578565b810160208510156136a2578190505b6136b66136ae85613578565b830182613655565b50505b505050565b600082821c905092915050565b60006136dc600019846008026136be565b1980831691505092915050565b60006136f583836136cb565b9150826002028217905092915050565b61370e82612c72565b67ffffffffffffffff81111561372757613726612eac565b5b6137318254613484565b61373c828285613678565b600060209050601f83116001811461376f576000841561375d578287015190505b61376785826136e9565b8655506137cf565b601f19841661377d86613563565b60005b828110156137a557848901518255600182019150602085019450602081019050613780565b868310156137c257848901516137be601f8916826136cb565b8355505b6001600288020188555050505b505050505050565b6000815190506137e681612d2e565b92915050565b60006020828403121561380257613801612bad565b5b6000613810848285016137d7565b91505092915050565b600060408201905061382e6000830185612db9565b61383b6020830184613033565b9392505050565b600081519050613851816131a5565b92915050565b60006020828403121561386d5761386c612bad565b5b600061387b84828501613842565b91505092915050565b7f596f7520646f206e6f74206f776e207468697320736e616b652e000000000000600082015250565b60006138ba601a83612c7d565b91506138c582613884565b602082019050919050565b600060208201905081810360008301526138e9816138ad565b9050919050565b7f536e616b65206973206e6f742068617463686564207965742e00000000000000600082015250565b6000613926601983612c7d565b9150613931826138f0565b602082019050919050565b6000602082019050818103600083015261395581613919565b9050919050565b600061396782612d24565b915061397283612d24565b925082820390508181111561398a576139896134ec565b5b92915050565b7f496e73756666696369656e742066656564696e6720616d6f756e742e00000000600082015250565b60006139c6601c83612c7d565b91506139d182613990565b602082019050919050565b600060208201905081810360008301526139f5816139b9565b9050919050565b6000606082019050613a116000830186612db9565b613a1e6020830185612db9565b613a2b6040830184613033565b949350505050565b7f546f6b656e207472616e73666572206661696c65642e00000000000000000000600082015250565b6000613a69601683612c7d565b9150613a7482613a33565b602082019050919050565b60006020820190508181036000830152613a9881613a5c565b9050919050565b600081905092915050565b6000613ab582612c72565b613abf8185613a9f565b9350613acf818560208601612c8e565b80840191505092915050565b6000613ae78285613aaa565b9150613af38284613aaa565b91508190509392505050565b7f4e6f7420796f7572206567670000000000000000000000000000000000000000600082015250565b6000613b35600c83612c7d565b9150613b4082613aff565b602082019050919050565b60006020820190508181036000830152613b6481613b28565b9050919050565b7f416c726561647920686174636865640000000000000000000000000000000000600082015250565b6000613ba1600f83612c7d565b9150613bac82613b6b565b602082019050919050565b60006020820190508181036000830152613bd081613b94565b9050919050565b6000613be282612d24565b9150613bed83612d24565b9250828201905080821115613c0557613c046134ec565b5b92915050565b7f4e6f7420726561647920746f2068617463680000000000000000000000000000600082015250565b6000613c41601283612c7d565b9150613c4c82613c0b565b602082019050919050565b60006020820190508181036000830152613c7081613c34565b9050919050565b600081519050613c8681612de3565b92915050565b600060208284031215613ca257613ca1612bad565b5b6000613cb084828501613c77565b91505092915050565b7f4e487b7100000000000000000000000000000000000000000000000000000000600052603260045260246000fd5b6000819050919050565b613d03613cfe82612d24565b613ce8565b82525050565b60008160601b9050919050565b6000613d2182613d09565b9050919050565b6000613d3382613d16565b9050919050565b613d4b613d4682612da7565b613d28565b82525050565b6000613d5d8286613cf2565b602082019150613d6d8285613d3a565b601482019150613d7d8284613cf2565b602082019150819050949350505050565b7f4e487b7100000000000000000000000000000000000000000000000000000000600052601260045260246000fd5b6000613dc882612d24565b9150613dd383612d24565b925082613de357613de2613d8e565b5b828206905092915050565b600081519050919050565b600082825260208201905092915050565b6000613e1582613dee565b613e1f8185613df9565b9350613e2f818560208601612c8e565b613e3881612cb8565b840191505092915050565b6000608082019050613e586000830187612db9565b613e656020830186612db9565b613e726040830185613033565b8181036060830152613e848184613e0a565b905095945050505050565b600081519050613e9e81612be3565b92915050565b600060208284031215613eba57613eb9612bad565b5b6000613ec884828501613e8f565b91505092915050565b7f697066733a2f2f706c616365686f6c6465722d736e616b652d7572692f000000600082015250565b6000613f07601d83613a9f565b9150613f1282613ed1565b601d82019050919050565b7f2d00000000000000000000000000000000000000000000000000000000000000600082015250565b6000613f53600183613a9f565b9150613f5e82613f1d565b600182019050919050565b6000613f7482613efa565b9150613f808285613aaa565b9150613f8b82613f46565b9150613f978284613aaa565b9150819050939250505056fea26469706673582212208ab6e0d13864e4a5d119e68d06d509cacd464c52cc6b6fbccbb72e7bedfafe9964736f6c634300081c0033",
  "linkReferences": {},
  "deployedLinkReferences": {}
}