{
  "_format": "hh-sol-artifact-1",
  "contractName": "CompoundingStakableERC20Token",
  "sourceName": "contracts/CompoundingStakableERC20Token.sol",
  "abi": [
    {
      "inputs": [
        {
          "internalType": "string",
          "name": "name_",
          "type": "string"
        },
        {
          "internalType": "string",
          "name": "symbol_",
          "type": "string"
        },
        {
          "internalType": "uint256",
          "name": "initialSupply",
          "type": "uint256"
        },
        {
          "internalType": "uint256",
          "name": "aprBasisPoints_",
          "type": "uint256"
        }
      ],
      "stateMutability": "nonpayable",
      "type": "constructor"
    },
    {
      "inputs": [
        {
          "internalType": "address",
          "name": "spender",
          "type": "address"
        },
        {
          "internalType": "uint256",
          "name": "allowance",
          "type": "uint256"
        },
        {
          "internalType": "uint256",
          "name": "needed",
          "type": "uint256"
        }
      ],
      "name": "ERC20InsufficientAllowance",
      "type": "error"
    },
    {
      "inputs": [
        {
          "internalType": "address",
          "name": "sender",
          "type": "address"
        },
        {
          "internalType": "uint256",
          "name": "balance",
          "type": "uint256"
        },
        {
          "internalType": "uint256",
          "name": "needed",
          "type": "uint256"
        }
      ],
      "name": "ERC20InsufficientBalance",
      "type": "error"
    },
    {
      "inputs": [
        {
          "internalType": "address",
          "name": "approver",
          "type": "address"
        }
      ],
      "name": "ERC20InvalidApprover",
      "type": "error"
    },
    {
      "inputs": [
        {
          "internalType": "address",
          "name": "receiver",
          "type": "address"
        }
      ],
      "name": "ERC20InvalidReceiver",
      "type": "error"
    },
    {
      "inputs": [
        {
          "internalType": "address",
          "name": "sender",
          "type": "address"
        }
      ],
      "name": "ERC20InvalidSender",
      "type": "error"
    },
    {
      "inputs": [
        {
          "internalType": "address",
          "name": "spender",
          "type": "address"
        }
      ],
      "name": "ERC20InvalidSpender",
      "type": "error"
    },
    {
      "inputs": [
        {
          "internalType": "address",
          "name": "owner",
          "type": "address"
        }
      ],
      "name": "OwnableInvalidOwner",
      "type": "error"
    },
    {
      "inputs": [
        {
          "internalType": "address",
          "name": "account",
          "type": "address"
        }
      ],
      "name": "OwnableUnauthorizedAccount",
      "type": "error"
    },
    {
      "anonymous": false,
      "inputs": [
        {
          "indexed": false,
          "internalType": "uint256",
          "name": "newAprBasisPoints",
          "type": "uint256"
        }
      ],
      "name": "APRUpdated",
      "type": "event"
    },
    {
      "anonymous": false,
      "inputs": [
        {
          "indexed": true,
          "internalType": "address",
          "name": "owner",
          "type": "address"
        },
        {
          "indexed": true,
          "internalType": "address",
          "name": "spender",
          "type": "address"
        },
        {
          "indexed": false,
          "internalType": "uint256",
          "name": "value",
          "type": "uint256"
        }
      ],
      "name": "Approval",
      "type": "event"
    },
    {
      "anonymous": false,
      "inputs": [
        {
          "indexed": true,
          "internalType": "address",
          "name": "previousOwner",
          "type": "address"
        },
        {
          "indexed": true,
          "internalType": "address",
          "name": "newOwner",
          "type": "address"
        }
      ],
      "name": "OwnershipTransferred",
      "type": "event"
    },
    {
      "anonymous": false,
      "inputs": [
        {
          "indexed": true,
          "internalType": "address",
          "name": "user",
          "type": "address"
        },
        {
          "indexed": false,
          "internalType": "uint256",
          "name": "amount",
          "type": "uint256"
        }
      ],
      "name": "Staked",
      "type": "event"
    },
    {
      "anonymous": false,
      "inputs": [
        {
          "indexed": true,
          "internalType": "address",
          "name": "from",
          "type": "address"
        },
        {
          "indexed": true,
          "internalType": "address",
          "name": "to",
          "type": "address"
        },
        {
          "indexed": false,
          "internalType": "uint256",
          "name": "value",
          "type": "uint256"
        }
      ],
      "name": "Transfer",
      "type": "event"
    },
    {
      "anonymous": false,
      "inputs": [
        {
          "indexed": true,
          "internalType": "address",
          "name": "user",
          "type": "address"
        },
        {
          "indexed": false,
          "internalType": "uint256",
          "name": "amount",
          "type": "uint256"
        }
      ],
      "name": "Withdrawn",
      "type": "event"
    },
    {
      "inputs": [
        {
          "internalType": "address",
          "name": "owner",
          "type": "address"
        },
        {
          "internalType": "address",
          "name": "spender",
          "type": "address"
        }
      ],
      "name": "allowance",
      "outputs": [
        {
          "internalType": "uint256",
          "name": "",
          "type": "uint256"
        }
      ],
      "stateMutability": "view",
      "type": "function"
    },
    {
      "inputs": [
        {
          "internalType": "address",
          "name": "spender",
          "type": "address"
        },
        {
          "internalType": "uint256",
          "name": "value",
          "type": "uint256"
        }
      ],
      "name": "approve",
      "outputs": [
        {
          "internalType": "bool",
          "name": "",
          "type": "bool"
        }
      ],
      "stateMutability": "nonpayable",
      "type": "function"
    },
    {
      "inputs": [],
      "name": "aprBasisPoints",
      "outputs": [
        {
          "internalType": "uint256",
          "name": "",
          "type": "uint256"
        }
      ],
      "stateMutability": "view",
      "type": "function"
    },
    {
      "inputs": [
        {
          "internalType": "address",
          "name": "account",
          "type": "address"
        }
      ],
      "name": "balanceOf",
      "outputs": [
        {
          "internalType": "uint256",
          "name": "",
          "type": "uint256"
        }
      ],
      "stateMutability": "view",
      "type": "function"
    },
    {
      "inputs": [
        {
          "internalType": "uint256",
          "name": "value",
          "type": "uint256"
        }
      ],
      "name": "burn",
      "outputs": [],
      "stateMutability": "nonpayable",
      "type": "function"
    },
    {
      "inputs": [
        {
          "internalType": "address",
          "name": "account",
          "type": "address"
        },
        {
          "internalType": "uint256",
          "name": "value",
          "type": "uint256"
        }
      ],
      "name": "burnFrom",
      "outputs": [],
      "stateMutability": "nonpayable",
      "type": "function"
    },
    {
      "inputs": [],
      "name": "decimals",
      "outputs": [
        {
          "internalType": "uint8",
          "name": "",
          "type": "uint8"
        }
      ],
      "stateMutability": "view",
      "type": "function"
    },
    {
      "inputs": [
        {
          "internalType": "address",
          "name": "to",
          "type": "address"
        },
        {
          "internalType": "uint256",
          "name": "amount",
          "type": "uint256"
        }
      ],
      "name": "mint",
      "outputs": [],
      "stateMutability": "nonpayable",
      "type": "function"
    },
    {
      "inputs": [],
      "name": "name",
      "outputs": [
        {
          "internalType": "string",
          "name": "",
          "type": "string"
        }
      ],
      "stateMutability": "view",
      "type": "function"
    },
    {
      "inputs": [],
      "name": "owner",
      "outputs": [
        {
          "internalType": "address",
          "name": "",
          "type": "address"
        }
      ],
      "stateMutability": "view",
      "type": "function"
    },
    {
      "inputs": [
        {
          "internalType": "address",
          "name": "account",
          "type": "address"
        }
      ],
      "name": "pendingRewards",
      "outputs": [
        {
          "internalType": "uint256",
          "name": "",
          "type": "uint256"
        }
      ],
      "stateMutability": "view",
      "type": "function"
    },
    {
      "inputs": [],
      "name": "renounceOwnership",
      "outputs": [],
      "stateMutability": "nonpayable",
      "type": "function"
    },
    {
      "inputs": [
        {
          "internalType": "uint256",
          "name": "amount",
          "type": "uint256"
        }
      ],
      "name": "stake",
      "outputs": [],
      "stateMutability": "nonpayable",
      "type": "function"
    },
    {
      "inputs": [
        {
          "internalType": "address",
          "name": "",
          "type": "address"
        }
      ],
      "name": "stakes",
      "outputs": [
        {
          "internalType": "uint256",
          "name": "amount",
          "type": "uint256"
        },
        {
          "internalType": "uint256",
          "name": "timestamp",
          "type": "uint256"
        }
      ],
      "stateMutability": "view",
      "type": "function"
    },
    {
      "inputs": [],
      "name": "symbol",
      "outputs": [
        {
          "internalType": "string",
          "name": "",
          "type": "string"
        }
      ],
      "stateMutability": "view",
      "type": "function"
    },
    {
      "inputs": [],
      "name": "totalSupply",
      "outputs": [
        {
          "internalType": "uint256",
          "name": "",
          "type": "uint256"
        }
      ],
      "stateMutability": "view",
      "type": "function"
    },
    {
      "inputs": [
        {
          "internalType": "address",
          "name": "to",
          "type": "address"
        },
        {
          "internalType": "uint256",
          "name": "value",
          "type": "uint256"
        }
      ],
      "name": "transfer",
      "outputs": [
        {
          "internalType": "bool",
          "name": "",
          "type": "bool"
        }
      ],
      "stateMutability": "nonpayable",
      "type": "function"
    },
    {
      "inputs": [
        {
          "internalType": "address",
          "name": "from",
          "type": "address"
        },
        {
          "internalType": "address",
          "name": "to",
          "type": "address"
        },
        {
          "internalType": "uint256",
          "name": "value",
          "type": "uint256"
        }
      ],
      "name": "transferFrom",
      "outputs": [
        {
          "internalType": "bool",
          "name": "",
          "type": "bool"
        }
      ],
      "stateMutability": "nonpayable",
      "type": "function"
    },
    {
      "inputs": [
        {
          "internalType": "address",
          "name": "newOwner",
          "type": "address"
        }
      ],
      "name": "transferOwnership",
      "outputs": [],
      "stateMutability": "nonpayable",
      "type": "function"
    },
    {
      "inputs": [
        {
          "internalType": "uint256",
          "name": "newAprBasisPoints",
          "type": "uint256"
        }
      ],
      "name": "updateAPR",
      "outputs": [],
      "stateMutability": "nonpayable",
      "type": "function"
    },
    {
      "inputs": [
        {
          "internalType": "uint256",
          "name": "amount",
          "type": "uint256"
        }
      ],
      "name": "withdraw",
      "outputs": [],
      "stateMutability": "nonpayable",
      "type": "function"
    }
  ],
  "bytecode": "0x608060405234801561001057600080fd5b5060405161253838038061253883398181016040528101906100329190610617565b338484816003908161004491906108cd565b50806004908161005491906108cd565b505050600073ffffffffffffffffffffffffffffffffffffffff168173ffffffffffffffffffffffffffffffffffffffff16036100c95760006040517f1e4fbdf70000000000000000000000000000000000000000000000000000000081526004016100c091906109e0565b60405180910390fd5b6100d8816100f960201b60201c565b506100e933836101bf60201b60201c565b8060068190555050505050610abf565b6000600560009054906101000a900473ffffffffffffffffffffffffffffffffffffffff16905081600560006101000a81548173ffffffffffffffffffffffffffffffffffffffff021916908373ffffffffffffffffffffffffffffffffffffffff1602179055508173ffffffffffffffffffffffffffffffffffffffff168173ffffffffffffffffffffffffffffffffffffffff167f8be0079c531659141344cd1fd0a4f28419497f9722a3daafe3b4186f6b6457e060405160405180910390a35050565b600073ffffffffffffffffffffffffffffffffffffffff168273ffffffffffffffffffffffffffffffffffffffff16036102315760006040517fec442f0500000000000000000000000000000000000000000000000000000000815260040161022891906109e0565b60405180910390fd5b6102436000838361024760201b60201c565b5050565b600073ffffffffffffffffffffffffffffffffffffffff168373ffffffffffffffffffffffffffffffffffffffff160361029957806002600082825461028d9190610a2a565b9250508190555061036c565b60008060008573ffffffffffffffffffffffffffffffffffffffff1673ffffffffffffffffffffffffffffffffffffffff16815260200190815260200160002054905081811015610325578381836040517fe450d38c00000000000000000000000000000000000000000000000000000000815260040161031c93929190610a6d565b60405180910390fd5b8181036000808673ffffffffffffffffffffffffffffffffffffffff1673ffffffffffffffffffffffffffffffffffffffff16815260200190815260200160002081905550505b600073ffffffffffffffffffffffffffffffffffffffff168273ffffffffffffffffffffffffffffffffffffffff16036103b55780600260008282540392505081905550610402565b806000808473ffffffffffffffffffffffffffffffffffffffff1673ffffffffffffffffffffffffffffffffffffffff168152602001908152602001600020600082825401925050819055505b8173ffffffffffffffffffffffffffffffffffffffff168373ffffffffffffffffffffffffffffffffffffffff167fddf252ad1be2c89b69c2b068fc378daa952ba7f163c4a11628f55a4df523b3ef8360405161045f9190610aa4565b60405180910390a3505050565b6000604051905090565b600080fd5b600080fd5b600080fd5b600080fd5b6000601f19601f8301169050919050565b7f4e487b7100000000000000000000000000000000000000000000000000000000600052604160045260246000fd5b6104d38261048a565b810181811067ffffffffffffffff821117156104f2576104f161049b565b5b80604052505050565b600061050561046c565b905061051182826104ca565b919050565b600067ffffffffffffffff8211156105315761053061049b565b5b61053a8261048a565b9050602081019050919050565b60005b8381101561056557808201518184015260208101905061054a565b60008484015250505050565b600061058461057f84610516565b6104fb565b9050828152602081018484840111156105a05761059f610485565b5b6105ab848285610547565b509392505050565b600082601f8301126105c8576105c7610480565b5b81516105d8848260208601610571565b91505092915050565b6000819050919050565b6105f4816105e1565b81146105ff57600080fd5b50565b600081519050610611816105eb565b92915050565b6000806000806080858703121561063157610630610476565b5b600085015167ffffffffffffffff81111561064f5761064e61047b565b5b61065b878288016105b3565b945050602085015167ffffffffffffffff81111561067c5761067b61047b565b5b610688878288016105b3565b935050604061069987828801610602565b92505060606106aa87828801610602565b91505092959194509250565b600081519050919050565b7f4e487b7100000000000000000000000000000000000000000000000000000000600052602260045260246000fd5b6000600282049050600182168061070857607f821691505b60208210810361071b5761071a6106c1565b5b50919050565b60008190508160005260206000209050919050565b60006020601f8301049050919050565b600082821b905092915050565b6000600883026107837fffffffffffffffffffffffffffffffffffffffffffffffffffffffffffffffff82610746565b61078d8683610746565b95508019841693508086168417925050509392505050565b6000819050919050565b60006107ca6107c56107c0846105e1565b6107a5565b6105e1565b9050919050565b6000819050919050565b6107e4836107af565b6107f86107f0826107d1565b848454610753565b825550505050565b600090565b61080d610800565b6108188184846107db565b505050565b5b8181101561083c57610831600082610805565b60018101905061081e565b5050565b601f8211156108815761085281610721565b61085b84610736565b8101602085101561086a578190505b61087e61087685610736565b83018261081d565b50505b505050565b600082821c905092915050565b60006108a460001984600802610886565b1980831691505092915050565b60006108bd8383610893565b9150826002028217905092915050565b6108d6826106b6565b67ffffffffffffffff8111156108ef576108ee61049b565b5b6108f982546106f0565b610904828285610840565b600060209050601f8311600181146109375760008415610925578287015190505b61092f85826108b1565b865550610997565b601f19841661094586610721565b60005b8281101561096d57848901518255600182019150602085019450602081019050610948565b8683101561098a5784890151610986601f891682610893565b8355505b6001600288020188555050505b505050505050565b600073ffffffffffffffffffffffffffffffffffffffff82169050919050565b60006109ca8261099f565b9050919050565b6109da816109bf565b82525050565b60006020820190506109f560008301846109d1565b92915050565b7f4e487b7100000000000000000000000000000000000000000000000000000000600052601160045260246000fd5b6000610a35826105e1565b9150610a40836105e1565b9250828201905080821115610a5857610a576109fb565b5b92915050565b610a67816105e1565b82525050565b6000606082019050610a8260008301866109d1565b610a8f6020830185610a5e565b610a9c6040830184610a5e565b949350505050565b6000602082019050610ab96000830184610a5e565b92915050565b611a6a80610ace6000396000f3fe608060405234801561001057600080fd5b50600436106101375760003560e01c806342966c68116100b857806395d89b411161007c57806395d89b411461033d578063a694fc3a1461035b578063a9059cbb14610377578063dd62ed3e146103a7578063e7e2629e146103d7578063f2fde38b146103f357610137565b806342966c68146102ad57806370a08231146102c9578063715018a6146102f957806379cc6790146103035780638da5cb5b1461031f57610137565b80632bdd2ad9116100ff5780632bdd2ad9146102095780632e1a7d4d14610227578063313ce5671461024357806331d7a2621461026157806340c10f191461029157610137565b806306fdde031461013c578063095ea7b31461015a57806316934fc41461018a57806318160ddd146101bb57806323b872dd146101d9575b600080fd5b61014461040f565b60405161015191906114ba565b60405180910390f35b610174600480360381019061016f9190611575565b6104a1565b60405161018191906115d0565b60405180910390f35b6101a4600480360381019061019f91906115eb565b6104c4565b6040516101b2929190611627565b60405180910390f35b6101c36104e8565b6040516101d09190611650565b60405180910390f35b6101f360048036038101906101ee919061166b565b6104f2565b60405161020091906115d0565b60405180910390f35b610211610521565b60405161021e9190611650565b60405180910390f35b610241600480360381019061023c91906116be565b610527565b005b61024b610679565b6040516102589190611707565b60405180910390f35b61027b600480360381019061027691906115eb565b610682565b6040516102889190611650565b60405180910390f35b6102ab60048036038101906102a69190611575565b610752565b005b6102c760048036038101906102c291906116be565b610768565b005b6102e360048036038101906102de91906115eb565b61077c565b6040516102f09190611650565b60405180910390f35b6103016107c4565b005b61031d60048036038101906103189190611575565b6107d8565b005b6103276107f8565b6040516103349190611731565b60405180910390f35b610345610822565b60405161035291906114ba565b60405180910390f35b610375600480360381019061037091906116be565b6108b4565b005b610391600480360381019061038c9190611575565b6109fc565b60405161039e91906115d0565b60405180910390f35b6103c160048036038101906103bc919061174c565b610a1f565b6040516103ce9190611650565b60405180910390f35b6103f160048036038101906103ec91906116be565b610aa6565b005b61040d600480360381019061040891906115eb565b610aef565b005b60606003805461041e906117bb565b80601f016020809104026020016040519081016040528092919081815260200182805461044a906117bb565b80156104975780601f1061046c57610100808354040283529160200191610497565b820191906000526020600020905b81548152906001019060200180831161047a57829003601f168201915b5050505050905090565b6000806104ac610b75565b90506104b9818585610b7d565b600191505092915050565b60076020528060005260406000206000915090508060000154908060010154905082565b6000600254905090565b6000806104fd610b75565b905061050a858285610b8f565b610515858585610c24565b60019150509392505050565b60065481565b6000600760003373ffffffffffffffffffffffffffffffffffffffff1673ffffffffffffffffffffffffffffffffffffffff168152602001908152602001600020905080600001548211156105b1576040517f08c379a00000000000000000000000000000000000000000000000000000000081526004016105a890611838565b60405180910390fd5b6105ba33610d18565b818160000160008282546105ce9190611887565b9250508190555042600760003373ffffffffffffffffffffffffffffffffffffffff1673ffffffffffffffffffffffffffffffffffffffff16815260200190815260200160002060010181905550610627303384610c24565b3373ffffffffffffffffffffffffffffffffffffffff167f7084f5476618d8e60b11ef0d7d3f06914655adb8793e28ff7f018d4c76d505d58360405161066d9190611650565b60405180910390a25050565b60006012905090565b600080600760008473ffffffffffffffffffffffffffffffffffffffff1673ffffffffffffffffffffffffffffffffffffffff16815260200190815260200160002060405180604001604052908160008201548152602001600182015481525050905060008160000151036106fb57600091505061074d565b600081602001514261070d9190611887565b90506301e1338061271061072191906118bb565b81600654846000015161073491906118bb565b61073e91906118bb565b610748919061192c565b925050505b919050565b61075a610ddd565b6107648282610e64565b5050565b610779610773610b75565b82610ee6565b50565b60008060008373ffffffffffffffffffffffffffffffffffffffff1673ffffffffffffffffffffffffffffffffffffffff168152602001908152602001600020549050919050565b6107cc610ddd565b6107d66000610f68565b565b6107ea826107e4610b75565b83610b8f565b6107f48282610ee6565b5050565b6000600560009054906101000a900473ffffffffffffffffffffffffffffffffffffffff16905090565b606060048054610831906117bb565b80601f016020809104026020016040519081016040528092919081815260200182805461085d906117bb565b80156108aa5780601f1061087f576101008083540402835291602001916108aa565b820191906000526020600020905b81548152906001019060200180831161088d57829003601f168201915b5050505050905090565b600081116108f7576040517f08c379a00000000000000000000000000000000000000000000000000000000081526004016108ee906119a9565b60405180910390fd5b61090033610d18565b61090b333083610c24565b80600760003373ffffffffffffffffffffffffffffffffffffffff1673ffffffffffffffffffffffffffffffffffffffff168152602001908152602001600020600001600082825461095d91906119c9565b9250508190555042600760003373ffffffffffffffffffffffffffffffffffffffff1673ffffffffffffffffffffffffffffffffffffffff168152602001908152602001600020600101819055503373ffffffffffffffffffffffffffffffffffffffff167f9e71bc8eea02a63969f509818f2dafb9254532904319f9dbda79b67bd34a5f3d826040516109f19190611650565b60405180910390a250565b600080610a07610b75565b9050610a14818585610c24565b600191505092915050565b6000600160008473ffffffffffffffffffffffffffffffffffffffff1673ffffffffffffffffffffffffffffffffffffffff16815260200190815260200160002060008373ffffffffffffffffffffffffffffffffffffffff1673ffffffffffffffffffffffffffffffffffffffff16815260200190815260200160002054905092915050565b610aae610ddd565b806006819055507f2ec8ccb96042321f3bbdd56e8e4e4339bc07c9c2021e14e18ef12f5db282b37a81604051610ae49190611650565b60405180910390a150565b610af7610ddd565b600073ffffffffffffffffffffffffffffffffffffffff168173ffffffffffffffffffffffffffffffffffffffff1603610b695760006040517f1e4fbdf7000000000000000000000000000000000000000000000000000000008152600401610b609190611731565b60405180910390fd5b610b7281610f68565b50565b600033905090565b610b8a838383600161102e565b505050565b6000610b9b8484610a1f565b90507fffffffffffffffffffffffffffffffffffffffffffffffffffffffffffffffff811015610c1e5781811015610c0e578281836040517ffb8f41b2000000000000000000000000000000000000000000000000000000008152600401610c05939291906119fd565b60405180910390fd5b610c1d8484848403600061102e565b5b50505050565b600073ffffffffffffffffffffffffffffffffffffffff168373ffffffffffffffffffffffffffffffffffffffff1603610c965760006040517f96c6fd1e000000000000000000000000000000000000000000000000000000008152600401610c8d9190611731565b60405180910390fd5b600073ffffffffffffffffffffffffffffffffffffffff168273ffffffffffffffffffffffffffffffffffffffff1603610d085760006040517fec442f05000000000000000000000000000000000000000000000000000000008152600401610cff9190611731565b60405180910390fd5b610d13838383611205565b505050565b6000610d2382610682565b90506000811115610d925780600760008473ffffffffffffffffffffffffffffffffffffffff1673ffffffffffffffffffffffffffffffffffffffff1681526020019081526020016000206000016000828254610d8091906119c9565b92505081905550610d913082610e64565b5b42600760008473ffffffffffffffffffffffffffffffffffffffff1673ffffffffffffffffffffffffffffffffffffffff168152602001908152602001600020600101819055505050565b610de5610b75565b73ffffffffffffffffffffffffffffffffffffffff16610e036107f8565b73ffffffffffffffffffffffffffffffffffffffff1614610e6257610e26610b75565b6040517f118cdaa7000000000000000000000000000000000000000000000000000000008152600401610e599190611731565b60405180910390fd5b565b600073ffffffffffffffffffffffffffffffffffffffff168273ffffffffffffffffffffffffffffffffffffffff1603610ed65760006040517fec442f05000000000000000000000000000000000000000000000000000000008152600401610ecd9190611731565b60405180910390fd5b610ee260008383611205565b5050565b600073ffffffffffffffffffffffffffffffffffffffff168273ffffffffffffffffffffffffffffffffffffffff1603610f585760006040517f96c6fd1e000000000000000000000000000000000000000000000000000000008152600401610f4f9190611731565b60405180910390fd5b610f6482600083611205565b5050565b6000600560009054906101000a900473ffffffffffffffffffffffffffffffffffffffff16905081600560006101000a81548173ffffffffffffffffffffffffffffffffffffffff021916908373ffffffffffffffffffffffffffffffffffffffff1602179055508173ffffffffffffffffffffffffffffffffffffffff168173ffffffffffffffffffffffffffffffffffffffff167f8be0079c531659141344cd1fd0a4f28419497f9722a3daafe3b4186f6b6457e060405160405180910390a35050565b600073ffffffffffffffffffffffffffffffffffffffff168473ffffffffffffffffffffffffffffffffffffffff16036110a05760006040517fe602df050000000000000000000000000000000000000000000000000000000081526004016110979190611731565b60405180910390fd5b600073ffffffffffffffffffffffffffffffffffffffff168373ffffffffffffffffffffffffffffffffffffffff16036111125760006040517f94280d620000000000000000000000000000000000000000000000000000000081526004016111099190611731565b60405180910390fd5b81600160008673ffffffffffffffffffffffffffffffffffffffff1673ffffffffffffffffffffffffffffffffffffffff16815260200190815260200160002060008573ffffffffffffffffffffffffffffffffffffffff1673ffffffffffffffffffffffffffffffffffffffff1681526020019081526020016000208190555080156111ff578273ffffffffffffffffffffffffffffffffffffffff168473ffffffffffffffffffffffffffffffffffffffff167f8c5be1e5ebec7d5bd14f71427d1e84f3dd0314c0f7b2291e5b200ac8c7c3b925846040516111f69190611650565b60405180910390a35b50505050565b600073ffffffffffffffffffffffffffffffffffffffff168373ffffffffffffffffffffffffffffffffffffffff160361125757806002600082825461124b91906119c9565b9250508190555061132a565b60008060008573ffffffffffffffffffffffffffffffffffffffff1673ffffffffffffffffffffffffffffffffffffffff168152602001908152602001600020549050818110156112e3578381836040517fe450d38c0000000000000000000000000000000000000000000000000000000081526004016112da939291906119fd565b60405180910390fd5b8181036000808673ffffffffffffffffffffffffffffffffffffffff1673ffffffffffffffffffffffffffffffffffffffff16815260200190815260200160002081905550505b600073ffffffffffffffffffffffffffffffffffffffff168273ffffffffffffffffffffffffffffffffffffffff160361137357806002600082825403925050819055506113c0565b806000808473ffffffffffffffffffffffffffffffffffffffff1673ffffffffffffffffffffffffffffffffffffffff168152602001908152602001600020600082825401925050819055505b8173ffffffffffffffffffffffffffffffffffffffff168373ffffffffffffffffffffffffffffffffffffffff167fddf252ad1be2c89b69c2b068fc378daa952ba7f163c4a11628f55a4df523b3ef8360405161141d9190611650565b60405180910390a3505050565b600081519050919050565b600082825260208201905092915050565b60005b83811015611464578082015181840152602081019050611449565b60008484015250505050565b6000601f19601f8301169050919050565b600061148c8261142a565b6114968185611435565b93506114a6818560208601611446565b6114af81611470565b840191505092915050565b600060208201905081810360008301526114d48184611481565b905092915050565b600080fd5b600073ffffffffffffffffffffffffffffffffffffffff82169050919050565b600061150c826114e1565b9050919050565b61151c81611501565b811461152757600080fd5b50565b60008135905061153981611513565b92915050565b6000819050919050565b6115528161153f565b811461155d57600080fd5b50565b60008135905061156f81611549565b92915050565b6000806040838503121561158c5761158b6114dc565b5b600061159a8582860161152a565b92505060206115ab85828601611560565b9150509250929050565b60008115159050919050565b6115ca816115b5565b82525050565b60006020820190506115e560008301846115c1565b92915050565b600060208284031215611601576116006114dc565b5b600061160f8482850161152a565b91505092915050565b6116218161153f565b82525050565b600060408201905061163c6000830185611618565b6116496020830184611618565b9392505050565b60006020820190506116656000830184611618565b92915050565b600080600060608486031215611684576116836114dc565b5b60006116928682870161152a565b93505060206116a38682870161152a565b92505060406116b486828701611560565b9150509250925092565b6000602082840312156116d4576116d36114dc565b5b60006116e284828501611560565b91505092915050565b600060ff82169050919050565b611701816116eb565b82525050565b600060208201905061171c60008301846116f8565b92915050565b61172b81611501565b82525050565b60006020820190506117466000830184611722565b92915050565b60008060408385031215611763576117626114dc565b5b60006117718582860161152a565b92505060206117828582860161152a565b9150509250929050565b7f4e487b7100000000000000000000000000000000000000000000000000000000600052602260045260246000fd5b600060028204905060018216806117d357607f821691505b6020821081036117e6576117e561178c565b5b50919050565b7f496e73756666696369656e74207374616b650000000000000000000000000000600082015250565b6000611822601283611435565b915061182d826117ec565b602082019050919050565b6000602082019050818103600083015261185181611815565b9050919050565b7f4e487b7100000000000000000000000000000000000000000000000000000000600052601160045260246000fd5b60006118928261153f565b915061189d8361153f565b92508282039050818111156118b5576118b4611858565b5b92915050565b60006118c68261153f565b91506118d18361153f565b92508282026118df8161153f565b915082820484148315176118f6576118f5611858565b5b5092915050565b7f4e487b7100000000000000000000000000000000000000000000000000000000600052601260045260246000fd5b60006119378261153f565b91506119428361153f565b925082611952576119516118fd565b5b828204905092915050565b7f43616e6e6f74207374616b65207a65726f000000000000000000000000000000600082015250565b6000611993601183611435565b915061199e8261195d565b602082019050919050565b600060208201905081810360008301526119c281611986565b9050919050565b60006119d48261153f565b91506119df8361153f565b92508282019050808211156119f7576119f6611858565b5b92915050565b6000606082019050611a126000830186611722565b611a1f6020830185611618565b611a2c6040830184611618565b94935050505056fea2646970667358221220da2cfa35a8541590963a534e0633e03b6c28a498b8e42a833323f3727fe721a864736f6c634300081c0033",
  "linkReferences": {},
  "deployedLinkReferences": {}
}